:1000000012C02CC02BC02AC029C028C027C026C0BF
:1000100025C024C023C022C021C020C01FC01EC0D4
:100020001DC01CC01BC011241FBECFE5D4E0DEBF25
:10003000CDBF10E0A0E6B0E0EAE4F1E002C0059038
:100040000D92AA36B107D9F710E0AAE6B0E001C0D8
:100050001D92AA36B107E1F744D075C0D1CF9C01FB
:100060008A30910530F4205A3F4FF901808190E0A9
:10007000089580E090E0089588BB8FE393E00197B6
:10008000F1F700C000008FE393E00197F1F700C0A3
:10009000000008950F931F93CF93DF9300D0CDB747
:1000A000DEB728E022BB0AE010E010C0B80124D07F
:1000B000FC01E05AFF4F808169837A83DDDF82B3E0
:1000C000869582BB6981862F7A81972F181619062B
:1000D0006CF30F900F90DF91CF911F910F910895C6
:1000E00008958FEF81BB12BA87BB18BAC0E0D0E089
:1000F000CE01D0DF2196FCCF97FB092E07260AD030
:1001000077FD04D00CD006D000201AF470956195CC
:100110007F4F0895F6F7909581959F4F0895AA1BFC
:10012000BB1B51E107C0AA1FBB1FA617B70710F0E2
:10013000A61BB70B881F991F5A95A9F78095909514
:0A014000BC01CD010895F894FFCF33
:0A014A00C0F9A4B0999282F88090E9
:00000001FF
