:1000000012C02CC02BC02AC029C028C027C026C0BF
:1000100026C024C023C022C021C020C01FC01EC0D3
:100020001DC01CC01BC011241FBECFE5D4E0DEBF25
:10003000CDBF10E0A0E6B0E0EAE3F2E002C0059038
:100040000D92AA36B107D9F710E0AAE6B0E001C0D8
:100050001D92AC36B107E1F78BD0EDC0D1CF1F9226
:100060000F920FB60F9211240F900FBE0F901F909A
:100070001895CF93DF93CCB5DDB5382F20E044271A
:1000800037FD4095542F60E072E18AE790E09DD003
:1000900021503040C217D30758F080916A009091E8
:1000A0006B00019690936B0080936A001DBC1CBC92
:1000B000DF91CF91089584E690E0DBDF089581E041
:1000C00090E0D7DF08959C018A30910530F4205AE2
:1000D0003F4FF901808190E0089580E090E008951D
:1000E00088BB8FE39FE10197F1F700C000008DE42A
:1000F00091E00197F1F700C0000008950F931F935E
:10010000CF93DF9300D0CDB7DEB728E022BB0AE063
:1001100010E010C0B80146D0FC01E05AFF4F8081CA
:1001200069837A83DDDF82B3869582BB6981862FFE
:100130007A81972F181619066CF382B3823019F062
:1001400082B3813071F480ECCBDF80916A009091B2
:100150006B0023E0883E920724F481E082BB80ECB0
:10016000BFDF0F900F90DF91CF911F910F910895F6
:1001700010926B0010926A008FEF81BB12BA87BB9E
:1001800080EC88BB89B7846089BF8EB584608EBDE2
:100190001DBC1CBC789480916A0090916B00AEDF0E
:1001A0008ADFF9CF97FB092E07260AD077FD04D006
:1001B0002ED006D000201AF4709561957F4F0895D7
:1001C000F6F7909581959F4F0895A1E21A2EAA1BEC
:1001D000BB1BFD010DC0AA1FBB1FEE1FFF1FA217F7
:1001E000B307E407F50720F0A21BB30BE40BF50BF4
:1001F000661F771F881F991F1A9469F7609570957D
:10020000809590959B01AC01BD01CF010895AA1B7B
:10021000BB1B51E107C0AA1FBB1FA617B70710F0F1
:10022000A61BB70B881F991F5A95A9F78095909523
:0A023000BC01CD010895F894FFCF42
:0A023A00C0F9A4B0999282F88090F8
:00000001FF
