:1000000012C02CC02BC02AC029C028C027C026C0BF
:1000100026C080C023C022C021C020C01FC01EC077
:100020001DC01CC01BC011241FBECFE5D4E0DEBF25
:10003000CDBF10E0A0E6B0E0E6EBF2E002C0059034
:100040000D92AA36B107D9F710E0AAE6B0E001C0D8
:100050001D92AC36B107E1F7BBD02BC1D1CF1F92B7
:100060000F920FB60F9211240F900FBE0F901F909A
:100070001895CF93DF93CCB5DDB5382F20E040E065
:1000800050E060E072E18AE790E0DDD0215030403E
:10009000C217D30758F080916A0090916B000196C7
:1000A00090936B0080936A001DBC1CBCDF91CF91C4
:1000B000089584E690E0DDDF089528E022BB2AE081
:1000C00030E011C0B901ACD0FC01E05AFF4F808193
:1000D00088BB81E393E00197F1F700C0000082B391
:1000E000869582BBCB011816190664F382B3823061
:1000F00019F082B3813069F42FEF28BB80916A0038
:1001000090916B0033E0883E93071CF481E082BB42
:1001100028BB08951F920F920FB60F9211242F93B0
:100120003F934F935F936F937F938F939F93AF937F
:10013000BF93EF93FF9380916A0090916B00BDDFB6
:1001400012BEFF91EF91BF91AF919F918F917F91DF
:100150006F915F914F913F912F910F900FBE0F9034
:100160001F9018959C018A30910530F4205A3F4F1A
:10017000F901808190E0089580E090E0089588BBC7
:1001800081E393E00197F1F700C000000895803407
:10019000910599F08134910520F481309105B9F4ED
:1001A00009C021E08030920759F024E080309207A6
:1001B00071F40AC08EB5816005C08EB5836002C03F
:1001C0008EB584608EBD08958EB585608EBD089510
:1001D00010926B0010926A008FEF81BB12BA87BB3E
:1001E00080EC88BB89B7846089BF80E091E0CFDF75
:1001F0001DBC1CBC89B7816089BF83B7846083BF85
:1002000012BE789456DF80916A0090916B002FE7C0
:100210008F3F9207B9F710926B0010926A00F2CFED
:1002200097FB092E07260AD077FD04D02ED006D0E2
:1002300000201AF4709561957F4F0895F6F7909518
:1002400081959F4F0895A1E21A2EAA1BBB1BFD01A9
:100250000DC0AA1FBB1FEE1FFF1FA217B307E407A5
:10026000F50720F0A21BB30BE40BF50B661F771FFD
:10027000881F991F1A9469F76095709580959095DD
:100280009B01AC01BD01CF010895AA1BBB1B51E12D
:1002900007C0AA1FBB1FA617B70710F0A61BB70BF6
:1002A000881F991F5A95A9F780959095BC01CD019B
:0602B0000895F894FFCF51
:0A02B600C0F9A4B0999282F880907C
:00000001FF
