:1000000012C02CC02BC02AC029C028C027C026C0BF
:1000100026C024C023C022C021C020C01FC01EC0D3
:100020001DC01CC01BC011241FBECFE5D4E0DEBF25
:10003000CDBF10E0A0E6B0E0E0E4F2E002C0059041
:100040000D92AA36B107D9F710E0AAE6B0E001C0D8
:100050001D92AC36B107E1F787D0F0C0D1CF1F9227
:100060000F920FB60F9211240F900FBE0F901F909A
:10007000189528E022BB2AE030E011C0B90195D0E4
:10008000FC01E05AFF4F808188BB8DE491E001972D
:10009000F1F700C0000082B3869582BBCB01181631
:1000A000190664F382B3823019F082B38130C9F447
:1000B00020EC28BB8DE491E00197F1F700C000002F
:1000C00080916A0090916B0033E0883E93074CF476
:1000D00081E082BB28BB8DE491E00197F1F700C07D
:1000E00000000895CF93DF93CCB5DDB5382F20E025
:1000F00040E050E060E072E18AE790E069D0215092
:100100003040C217D30780F080916A0090916B0055
:10011000019690936B0080936A0080916A009091A1
:100120006B00A7DF1DBC1CBCDF91CF91089581E05F
:1001300090E0D8DF089584E690E0D4DF08959C0134
:100140008A30910530F4205A3F4FF901808190E0C8
:10015000089580E090E0089588BB8DE491E00197D8
:10016000F1F700C00000089510926B0010926A0031
:100170008FEF81BB12BA87BB80EC88BB89B78460E4
:1001800089BF8EB584608EBD1DBC1CBC7894D3DF46
:1001900080916A0090916B002FE78F3F9207B9F72B
:1001A00010926B0010926A00F2CF97FB092E07267F
:1001B0000AD077FD04D02ED006D000201AF4709516
:1001C00061957F4F0895F6F7909581959F4F08951B
:1001D000A1E21A2EAA1BBB1BFD010DC0AA1FBB1F4B
:1001E000EE1FFF1FA217B307E407F50720F0A21BBD
:1001F000B30BE40BF50B661F771F881F991F1A942A
:1002000069F760957095809590959B01AC01BD0153
:10021000CF010895AA1BBB1B51E107C0AA1FBB1F3A
:10022000A617B70710F0A61BB70B881F991F5A9582
:10023000A9F780959095BC01CD010895F894FFCF62
:0A024000C0F9A4B0999282F88090F2
:00000001FF
